{
  "_format": "hh-sol-artifact-1",
  "contractName": "RewardCity",
  "sourceName": "contracts/RewardCity.sol",
  "abi": [
    {
      "inputs": [],
      "stateMutability": "nonpayable",
      "type": "constructor"
    },
    {
      "anonymous": false,
      "inputs": [
        {
          "indexed": true,
          "internalType": "address",
          "name": "_owner",
          "type": "address"
        },
        {
          "indexed": true,
          "internalType": "address",
          "name": "_spender",
          "type": "address"
        },
        {
          "indexed": false,
          "internalType": "uint256",
          "name": "_value",
          "type": "uint256"
        }
      ],
      "name": "Approval",
      "type": "event"
    },
    {
      "anonymous": false,
      "inputs": [
        {
          "indexed": true,
          "internalType": "address",
          "name": "_from",
          "type": "address"
        },
        {
          "indexed": true,
          "internalType": "address",
          "name": "_to",
          "type": "address"
        },
        {
          "indexed": false,
          "internalType": "uint256",
          "name": "_value",
          "type": "uint256"
        }
      ],
      "name": "Transfer",
      "type": "event"
    },
    {
      "inputs": [
        {
          "internalType": "address",
          "name": "_owner",
          "type": "address"
        },
        {
          "internalType": "address",
          "name": "_spender",
          "type": "address"
        }
      ],
      "name": "allowances",
      "outputs": [
        {
          "internalType": "uint256",
          "name": "",
          "type": "uint256"
        }
      ],
      "stateMutability": "view",
      "type": "function"
    },
    {
      "inputs": [
        {
          "internalType": "address",
          "name": "_spender",
          "type": "address"
        },
        {
          "internalType": "uint256",
          "name": "_value",
          "type": "uint256"
        }
      ],
      "name": "approve",
      "outputs": [
        {
          "internalType": "bool",
          "name": "",
          "type": "bool"
        }
      ],
      "stateMutability": "nonpayable",
      "type": "function"
    },
    {
      "inputs": [
        {
          "internalType": "address",
          "name": "_owner",
          "type": "address"
        }
      ],
      "name": "balanceOf",
      "outputs": [
        {
          "internalType": "uint256",
          "name": "",
          "type": "uint256"
        }
      ],
      "stateMutability": "view",
      "type": "function"
    },
    {
      "inputs": [],
      "name": "decimals",
      "outputs": [
        {
          "internalType": "uint8",
          "name": "",
          "type": "uint8"
        }
      ],
      "stateMutability": "pure",
      "type": "function"
    },
    {
      "inputs": [],
      "name": "name",
      "outputs": [
        {
          "internalType": "string",
          "name": "",
          "type": "string"
        }
      ],
      "stateMutability": "pure",
      "type": "function"
    },
    {
      "inputs": [],
      "name": "symbol",
      "outputs": [
        {
          "internalType": "string",
          "name": "",
          "type": "string"
        }
      ],
      "stateMutability": "pure",
      "type": "function"
    },
    {
      "inputs": [],
      "name": "totalSupply",
      "outputs": [
        {
          "internalType": "uint256",
          "name": "",
          "type": "uint256"
        }
      ],
      "stateMutability": "view",
      "type": "function"
    },
    {
      "inputs": [
        {
          "internalType": "address",
          "name": "_to",
          "type": "address"
        },
        {
          "internalType": "uint256",
          "name": "_value",
          "type": "uint256"
        }
      ],
      "name": "transfer",
      "outputs": [
        {
          "internalType": "bool",
          "name": "",
          "type": "bool"
        }
      ],
      "stateMutability": "nonpayable",
      "type": "function"
    },
    {
      "inputs": [
        {
          "internalType": "address",
          "name": "_from",
          "type": "address"
        },
        {
          "internalType": "address",
          "name": "_to",
          "type": "address"
        },
        {
          "internalType": "uint256",
          "name": "_value",
          "type": "uint256"
        }
      ],
      "name": "transferFrom",
      "outputs": [
        {
          "internalType": "bool",
          "name": "",
          "type": "bool"
        }
      ],
      "stateMutability": "nonpayable",
      "type": "function"
    }
  ],
  "bytecode": "0x60806040523480156200001157600080fd5b50620000226200006a60201b60201c565b6000803373ffffffffffffffffffffffffffffffffffffffff1673ffffffffffffffffffffffffffffffffffffffff16815260200190815260200160002081905550620002de565b60006200007c6200009f60201b60201c565b600a6200008a919062000242565b620186a06200009a919062000293565b905090565b60006012905090565b7f4e487b7100000000000000000000000000000000000000000000000000000000600052601160045260246000fd5b60008160011c9050919050565b6000808291508390505b600185111562000136578086048111156200010e576200010d620000a8565b5b60018516156200011e5780820291505b80810290506200012e85620000d7565b9450620000ee565b94509492505050565b60008262000151576001905062000224565b8162000161576000905062000224565b81600181146200017a57600281146200018557620001bb565b600191505062000224565b60ff8411156200019a5762000199620000a8565b5b8360020a915084821115620001b457620001b3620000a8565b5b5062000224565b5060208310610133831016604e8410600b8410161715620001f55782820a905083811115620001ef57620001ee620000a8565b5b62000224565b620002048484846001620000e4565b925090508184048111156200021e576200021d620000a8565b5b81810290505b9392505050565b6000819050919050565b600060ff82169050919050565b60006200024f826200022b565b91506200025c8362000235565b92506200028b7fffffffffffffffffffffffffffffffffffffffffffffffffffffffffffffffff84846200013f565b905092915050565b6000620002a0826200022b565b9150620002ad836200022b565b9250828202620002bd816200022b565b91508282048414831517620002d757620002d6620000a8565b5b5092915050565b610ed380620002ee6000396000f3fe608060405234801561001057600080fd5b50600436106100935760003560e01c8063313ce56711610066578063313ce5671461013457806355b6ed5c1461015257806370a082311461018257806395d89b41146101b2578063a9059cbb146101d057610093565b806306fdde0314610098578063095ea7b3146100b657806318160ddd146100e657806323b872dd14610104575b600080fd5b6100a0610200565b6040516100ad919061091c565b60405180910390f35b6100d060048036038101906100cb91906109d7565b61023d565b6040516100dd9190610a32565b60405180910390f35b6100ee61032f565b6040516100fb9190610a5c565b60405180910390f35b61011e60048036038101906101199190610a77565b610358565b60405161012b9190610a32565b60405180910390f35b61013c610611565b6040516101499190610ae6565b60405180910390f35b61016c60048036038101906101679190610b01565b61061a565b6040516101799190610a5c565b60405180910390f35b61019c60048036038101906101979190610b41565b6106a1565b6040516101a99190610a5c565b60405180910390f35b6101ba6106e9565b6040516101c7919061091c565b60405180910390f35b6101ea60048036038101906101e591906109d7565b610726565b6040516101f79190610a32565b60405180910390f35b60606040518060400160405280600a81526020017f5265776172644369747900000000000000000000000000000000000000000000815250905090565b600081600160003373ffffffffffffffffffffffffffffffffffffffff1673ffffffffffffffffffffffffffffffffffffffff16815260200190815260200160002060008573ffffffffffffffffffffffffffffffffffffffff1673ffffffffffffffffffffffffffffffffffffffff168152602001908152602001600020819055508273ffffffffffffffffffffffffffffffffffffffff163373ffffffffffffffffffffffffffffffffffffffff167f8c5be1e5ebec7d5bd14f71427d1e84f3dd0314c0f7b2291e5b200ac8c7c3b9258460405161031d9190610a5c565b60405180910390a36001905092915050565b6000610339610611565b600a6103459190610cd0565b620186a06103539190610d1b565b905090565b600081600160008673ffffffffffffffffffffffffffffffffffffffff1673ffffffffffffffffffffffffffffffffffffffff16815260200190815260200160002060003373ffffffffffffffffffffffffffffffffffffffff1673ffffffffffffffffffffffffffffffffffffffff168152602001908152602001600020541015610419576040517f08c379a000000000000000000000000000000000000000000000000000000000815260040161041090610da9565b60405180910390fd5b81610423856106a1565b1015610464576040517f08c379a000000000000000000000000000000000000000000000000000000000815260040161045b90610e15565b60405180910390fd5b816000808673ffffffffffffffffffffffffffffffffffffffff1673ffffffffffffffffffffffffffffffffffffffff16815260200190815260200160002060008282546104b29190610e35565b92505081905550816000808573ffffffffffffffffffffffffffffffffffffffff1673ffffffffffffffffffffffffffffffffffffffff16815260200190815260200160002060008282546105079190610e69565b9250508190555081600160008673ffffffffffffffffffffffffffffffffffffffff1673ffffffffffffffffffffffffffffffffffffffff16815260200190815260200160002060003373ffffffffffffffffffffffffffffffffffffffff1673ffffffffffffffffffffffffffffffffffffffff168152602001908152602001600020600082825461059a9190610e35565b925050819055508273ffffffffffffffffffffffffffffffffffffffff168473ffffffffffffffffffffffffffffffffffffffff167fddf252ad1be2c89b69c2b068fc378daa952ba7f163c4a11628f55a4df523b3ef846040516105fe9190610a5c565b60405180910390a3600190509392505050565b60006012905090565b6000600160008473ffffffffffffffffffffffffffffffffffffffff1673ffffffffffffffffffffffffffffffffffffffff16815260200190815260200160002060008373ffffffffffffffffffffffffffffffffffffffff1673ffffffffffffffffffffffffffffffffffffffff16815260200190815260200160002054905092915050565b60008060008373ffffffffffffffffffffffffffffffffffffffff1673ffffffffffffffffffffffffffffffffffffffff168152602001908152602001600020549050919050565b60606040518060400160405280600481526020017f5257435400000000000000000000000000000000000000000000000000000000815250905090565b600081610732336106a1565b1015610773576040517f08c379a000000000000000000000000000000000000000000000000000000000815260040161076a90610e15565b60405180910390fd5b816000803373ffffffffffffffffffffffffffffffffffffffff1673ffffffffffffffffffffffffffffffffffffffff16815260200190815260200160002060008282546107c19190610e35565b92505081905550816000808573ffffffffffffffffffffffffffffffffffffffff1673ffffffffffffffffffffffffffffffffffffffff16815260200190815260200160002060008282546108169190610e69565b925050819055508273ffffffffffffffffffffffffffffffffffffffff163373ffffffffffffffffffffffffffffffffffffffff167fddf252ad1be2c89b69c2b068fc378daa952ba7f163c4a11628f55a4df523b3ef8460405161087a9190610a5c565b60405180910390a36001905092915050565b600081519050919050565b600082825260208201905092915050565b60005b838110156108c65780820151818401526020810190506108ab565b60008484015250505050565b6000601f19601f8301169050919050565b60006108ee8261088c565b6108f88185610897565b93506109088185602086016108a8565b610911816108d2565b840191505092915050565b6000602082019050818103600083015261093681846108e3565b905092915050565b600080fd5b600073ffffffffffffffffffffffffffffffffffffffff82169050919050565b600061096e82610943565b9050919050565b61097e81610963565b811461098957600080fd5b50565b60008135905061099b81610975565b92915050565b6000819050919050565b6109b4816109a1565b81146109bf57600080fd5b50565b6000813590506109d1816109ab565b92915050565b600080604083850312156109ee576109ed61093e565b5b60006109fc8582860161098c565b9250506020610a0d858286016109c2565b9150509250929050565b60008115159050919050565b610a2c81610a17565b82525050565b6000602082019050610a476000830184610a23565b92915050565b610a56816109a1565b82525050565b6000602082019050610a716000830184610a4d565b92915050565b600080600060608486031215610a9057610a8f61093e565b5b6000610a9e8682870161098c565b9350506020610aaf8682870161098c565b9250506040610ac0868287016109c2565b9150509250925092565b600060ff82169050919050565b610ae081610aca565b82525050565b6000602082019050610afb6000830184610ad7565b92915050565b60008060408385031215610b1857610b1761093e565b5b6000610b268582860161098c565b9250506020610b378582860161098c565b9150509250929050565b600060208284031215610b5757610b5661093e565b5b6000610b658482850161098c565b91505092915050565b7f4e487b7100000000000000000000000000000000000000000000000000000000600052601160045260246000fd5b60008160011c9050919050565b6000808291508390505b6001851115610bf457808604811115610bd057610bcf610b6e565b5b6001851615610bdf5780820291505b8081029050610bed85610b9d565b9450610bb4565b94509492505050565b600082610c0d5760019050610cc9565b81610c1b5760009050610cc9565b8160018114610c315760028114610c3b57610c6a565b6001915050610cc9565b60ff841115610c4d57610c4c610b6e565b5b8360020a915084821115610c6457610c63610b6e565b5b50610cc9565b5060208310610133831016604e8410600b8410161715610c9f5782820a905083811115610c9a57610c99610b6e565b5b610cc9565b610cac8484846001610baa565b92509050818404811115610cc357610cc2610b6e565b5b81810290505b9392505050565b6000610cdb826109a1565b9150610ce683610aca565b9250610d137fffffffffffffffffffffffffffffffffffffffffffffffffffffffffffffffff8484610bfd565b905092915050565b6000610d26826109a1565b9150610d31836109a1565b9250828202610d3f816109a1565b91508282048414831517610d5657610d55610b6e565b5b5092915050565b7f496e73756666696369656e7420616c6c6f77616e636500000000000000000000600082015250565b6000610d93601683610897565b9150610d9e82610d5d565b602082019050919050565b60006020820190508181036000830152610dc281610d86565b9050919050565b7f496e73756666696369656e742062616c616e6365000000000000000000000000600082015250565b6000610dff601483610897565b9150610e0a82610dc9565b602082019050919050565b60006020820190508181036000830152610e2e81610df2565b9050919050565b6000610e40826109a1565b9150610e4b836109a1565b9250828203905081811115610e6357610e62610b6e565b5b92915050565b6000610e74826109a1565b9150610e7f836109a1565b9250828201905080821115610e9757610e96610b6e565b5b9291505056fea2646970667358221220710eb6c58bd7fa68956d4b12e94503cd293f3e0ca66ad28b5c39f22913402bfe64736f6c63430008180033",
  "linkReferences": {},
  "deployedLinkReferences": {}
}