{
  "_format": "hh-sol-artifact-1",
  "contractName": "RewardCity",
  "sourceName": "contracts/RewardCity.sol",
  "abi": [
    {
      "inputs": [
        {
          "internalType": "address",
          "name": "initialOwner",
          "type": "address"
        },
        {
          "internalType": "address",
          "name": "initialTreasury",
          "type": "address"
        }
      ],
      "stateMutability": "nonpayable",
      "type": "constructor"
    },
    {
      "inputs": [],
      "name": "EnforcedPause",
      "type": "error"
    },
    {
      "inputs": [],
      "name": "ExpectedPause",
      "type": "error"
    },
    {
      "inputs": [
        {
          "internalType": "address",
          "name": "owner",
          "type": "address"
        }
      ],
      "name": "OwnableInvalidOwner",
      "type": "error"
    },
    {
      "inputs": [
        {
          "internalType": "address",
          "name": "account",
          "type": "address"
        }
      ],
      "name": "OwnableUnauthorizedAccount",
      "type": "error"
    },
    {
      "inputs": [],
      "name": "ReentrancyGuardReentrantCall",
      "type": "error"
    },
    {
      "anonymous": false,
      "inputs": [
        {
          "indexed": true,
          "internalType": "address",
          "name": "owner",
          "type": "address"
        },
        {
          "indexed": true,
          "internalType": "address",
          "name": "spender",
          "type": "address"
        },
        {
          "indexed": false,
          "internalType": "uint256",
          "name": "value",
          "type": "uint256"
        }
      ],
      "name": "Approval",
      "type": "event"
    },
    {
      "anonymous": false,
      "inputs": [
        {
          "indexed": true,
          "internalType": "address",
          "name": "previousOwner",
          "type": "address"
        },
        {
          "indexed": true,
          "internalType": "address",
          "name": "newOwner",
          "type": "address"
        }
      ],
      "name": "OwnershipTransferred",
      "type": "event"
    },
    {
      "anonymous": false,
      "inputs": [
        {
          "indexed": false,
          "internalType": "address",
          "name": "account",
          "type": "address"
        }
      ],
      "name": "Paused",
      "type": "event"
    },
    {
      "anonymous": false,
      "inputs": [
        {
          "indexed": true,
          "internalType": "uint256",
          "name": "proposalId",
          "type": "uint256"
        },
        {
          "indexed": false,
          "internalType": "string",
          "name": "description",
          "type": "string"
        }
      ],
      "name": "ProposalCreated",
      "type": "event"
    },
    {
      "anonymous": false,
      "inputs": [
        {
          "indexed": true,
          "internalType": "uint256",
          "name": "proposalId",
          "type": "uint256"
        },
        {
          "indexed": false,
          "internalType": "address",
          "name": "voter",
          "type": "address"
        },
        {
          "indexed": false,
          "internalType": "uint256",
          "name": "votes",
          "type": "uint256"
        }
      ],
      "name": "ProposalVoted",
      "type": "event"
    },
    {
      "anonymous": false,
      "inputs": [
        {
          "indexed": true,
          "internalType": "address",
          "name": "from",
          "type": "address"
        },
        {
          "indexed": true,
          "internalType": "address",
          "name": "to",
          "type": "address"
        },
        {
          "indexed": false,
          "internalType": "uint256",
          "name": "value",
          "type": "uint256"
        }
      ],
      "name": "Transfer",
      "type": "event"
    },
    {
      "anonymous": false,
      "inputs": [
        {
          "indexed": false,
          "internalType": "address",
          "name": "account",
          "type": "address"
        }
      ],
      "name": "Unpaused",
      "type": "event"
    },
    {
      "inputs": [
        {
          "internalType": "address",
          "name": "owner",
          "type": "address"
        },
        {
          "internalType": "address",
          "name": "spender",
          "type": "address"
        }
      ],
      "name": "allowance",
      "outputs": [
        {
          "internalType": "uint256",
          "name": "",
          "type": "uint256"
        }
      ],
      "stateMutability": "view",
      "type": "function"
    },
    {
      "inputs": [
        {
          "internalType": "address",
          "name": "spender",
          "type": "address"
        },
        {
          "internalType": "uint256",
          "name": "amount",
          "type": "uint256"
        }
      ],
      "name": "approve",
      "outputs": [
        {
          "internalType": "bool",
          "name": "",
          "type": "bool"
        }
      ],
      "stateMutability": "nonpayable",
      "type": "function"
    },
    {
      "inputs": [
        {
          "internalType": "address",
          "name": "account",
          "type": "address"
        }
      ],
      "name": "balanceOf",
      "outputs": [
        {
          "internalType": "uint256",
          "name": "",
          "type": "uint256"
        }
      ],
      "stateMutability": "view",
      "type": "function"
    },
    {
      "inputs": [
        {
          "internalType": "address",
          "name": "account",
          "type": "address"
        },
        {
          "internalType": "bool",
          "name": "value",
          "type": "bool"
        }
      ],
      "name": "blacklistAddress",
      "outputs": [],
      "stateMutability": "nonpayable",
      "type": "function"
    },
    {
      "inputs": [
        {
          "internalType": "uint256",
          "name": "amount",
          "type": "uint256"
        }
      ],
      "name": "burn",
      "outputs": [],
      "stateMutability": "nonpayable",
      "type": "function"
    },
    {
      "inputs": [
        {
          "internalType": "string",
          "name": "description",
          "type": "string"
        },
        {
          "internalType": "address[]",
          "name": "recipients",
          "type": "address[]"
        }
      ],
      "name": "createProposal",
      "outputs": [],
      "stateMutability": "nonpayable",
      "type": "function"
    },
    {
      "inputs": [],
      "name": "decimals",
      "outputs": [
        {
          "internalType": "uint8",
          "name": "",
          "type": "uint8"
        }
      ],
      "stateMutability": "pure",
      "type": "function"
    },
    {
      "inputs": [
        {
          "internalType": "uint256",
          "name": "proposalId",
          "type": "uint256"
        }
      ],
      "name": "executeProposal",
      "outputs": [],
      "stateMutability": "nonpayable",
      "type": "function"
    },
    {
      "inputs": [
        {
          "internalType": "address",
          "name": "account",
          "type": "address"
        }
      ],
      "name": "isBlacklisted",
      "outputs": [
        {
          "internalType": "bool",
          "name": "",
          "type": "bool"
        }
      ],
      "stateMutability": "view",
      "type": "function"
    },
    {
      "inputs": [
        {
          "internalType": "address",
          "name": "to",
          "type": "address"
        },
        {
          "internalType": "uint256",
          "name": "amount",
          "type": "uint256"
        }
      ],
      "name": "mint",
      "outputs": [],
      "stateMutability": "nonpayable",
      "type": "function"
    },
    {
      "inputs": [],
      "name": "name",
      "outputs": [
        {
          "internalType": "string",
          "name": "",
          "type": "string"
        }
      ],
      "stateMutability": "pure",
      "type": "function"
    },
    {
      "inputs": [],
      "name": "owner",
      "outputs": [
        {
          "internalType": "address",
          "name": "",
          "type": "address"
        }
      ],
      "stateMutability": "view",
      "type": "function"
    },
    {
      "inputs": [],
      "name": "pauseTransfers",
      "outputs": [],
      "stateMutability": "nonpayable",
      "type": "function"
    },
    {
      "inputs": [],
      "name": "paused",
      "outputs": [
        {
          "internalType": "bool",
          "name": "",
          "type": "bool"
        }
      ],
      "stateMutability": "view",
      "type": "function"
    },
    {
      "inputs": [
        {
          "internalType": "uint256",
          "name": "",
          "type": "uint256"
        }
      ],
      "name": "proposals",
      "outputs": [
        {
          "internalType": "string",
          "name": "description",
          "type": "string"
        },
        {
          "internalType": "uint256",
          "name": "votes",
          "type": "uint256"
        },
        {
          "internalType": "bool",
          "name": "executed",
          "type": "bool"
        }
      ],
      "stateMutability": "view",
      "type": "function"
    },
    {
      "inputs": [],
      "name": "renounceOwnership",
      "outputs": [],
      "stateMutability": "nonpayable",
      "type": "function"
    },
    {
      "inputs": [
        {
          "internalType": "uint256",
          "name": "fee",
          "type": "uint256"
        }
      ],
      "name": "setTransactionFee",
      "outputs": [],
      "stateMutability": "nonpayable",
      "type": "function"
    },
    {
      "inputs": [],
      "name": "symbol",
      "outputs": [
        {
          "internalType": "string",
          "name": "",
          "type": "string"
        }
      ],
      "stateMutability": "pure",
      "type": "function"
    },
    {
      "inputs": [],
      "name": "totalSupply",
      "outputs": [
        {
          "internalType": "uint256",
          "name": "",
          "type": "uint256"
        }
      ],
      "stateMutability": "view",
      "type": "function"
    },
    {
      "inputs": [
        {
          "internalType": "address",
          "name": "recipient",
          "type": "address"
        },
        {
          "internalType": "uint256",
          "name": "amount",
          "type": "uint256"
        }
      ],
      "name": "transfer",
      "outputs": [
        {
          "internalType": "bool",
          "name": "",
          "type": "bool"
        }
      ],
      "stateMutability": "nonpayable",
      "type": "function"
    },
    {
      "inputs": [
        {
          "internalType": "address",
          "name": "sender",
          "type": "address"
        },
        {
          "internalType": "address",
          "name": "recipient",
          "type": "address"
        },
        {
          "internalType": "uint256",
          "name": "amount",
          "type": "uint256"
        }
      ],
      "name": "transferFrom",
      "outputs": [
        {
          "internalType": "bool",
          "name": "",
          "type": "bool"
        }
      ],
      "stateMutability": "nonpayable",
      "type": "function"
    },
    {
      "inputs": [
        {
          "internalType": "address",
          "name": "newOwner",
          "type": "address"
        }
      ],
      "name": "transferOwnership",
      "outputs": [],
      "stateMutability": "nonpayable",
      "type": "function"
    },
    {
      "inputs": [],
      "name": "unpauseTransfers",
      "outputs": [],
      "stateMutability": "nonpayable",
      "type": "function"
    },
    {
      "inputs": [
        {
          "internalType": "address",
          "name": "newTreasury",
          "type": "address"
        }
      ],
      "name": "updateTreasury",
      "outputs": [],
      "stateMutability": "nonpayable",
      "type": "function"
    },
    {
      "inputs": [
        {
          "internalType": "uint256",
          "name": "proposalId",
          "type": "uint256"
        }
      ],
      "name": "vote",
      "outputs": [],
      "stateMutability": "nonpayable",
      "type": "function"
    }
  ],
  "bytecode": "0x6080604052600a6008553480156200001657600080fd5b50604051620037bb380380620037bb83398181016040528101906200003c919062000351565b81600073ffffffffffffffffffffffffffffffffffffffff168173ffffffffffffffffffffffffffffffffffffffff1603620000b25760006040517f1e4fbdf7000000000000000000000000000000000000000000000000000000008152600401620000a99190620003a9565b60405180910390fd5b620000c3816200021a60201b60201c565b5060008060146101000a81548160ff02191690831515021790555060018081905550600073ffffffffffffffffffffffffffffffffffffffff168173ffffffffffffffffffffffffffffffffffffffff160362000157576040517f08c379a00000000000000000000000000000000000000000000000000000000081526004016200014e9062000427565b60405180910390fd5b62000167620002de60201b60201c565b600a620001759190620005e3565b620186a062000185919062000634565b600581905550600554600260008473ffffffffffffffffffffffffffffffffffffffff1673ffffffffffffffffffffffffffffffffffffffff1681526020019081526020016000208190555080600760006101000a81548173ffffffffffffffffffffffffffffffffffffffff021916908373ffffffffffffffffffffffffffffffffffffffff16021790555050506200067f565b60008060009054906101000a900473ffffffffffffffffffffffffffffffffffffffff169050816000806101000a81548173ffffffffffffffffffffffffffffffffffffffff021916908373ffffffffffffffffffffffffffffffffffffffff1602179055508173ffffffffffffffffffffffffffffffffffffffff168173ffffffffffffffffffffffffffffffffffffffff167f8be0079c531659141344cd1fd0a4f28419497f9722a3daafe3b4186f6b6457e060405160405180910390a35050565b60006012905090565b600080fd5b600073ffffffffffffffffffffffffffffffffffffffff82169050919050565b60006200031982620002ec565b9050919050565b6200032b816200030c565b81146200033757600080fd5b50565b6000815190506200034b8162000320565b92915050565b600080604083850312156200036b576200036a620002e7565b5b60006200037b858286016200033a565b92505060206200038e858286016200033a565b9150509250929050565b620003a3816200030c565b82525050565b6000602082019050620003c0600083018462000398565b92915050565b600082825260208201905092915050565b7f496e76616c696420747265617375727920616464726573730000000000000000600082015250565b60006200040f601883620003c6565b91506200041c82620003d7565b602082019050919050565b60006020820190508181036000830152620004428162000400565b9050919050565b7f4e487b7100000000000000000000000000000000000000000000000000000000600052601160045260246000fd5b60008160011c9050919050565b6000808291508390505b6001851115620004d757808604811115620004af57620004ae62000449565b5b6001851615620004bf5780820291505b8081029050620004cf8562000478565b94506200048f565b94509492505050565b600082620004f25760019050620005c5565b81620005025760009050620005c5565b81600181146200051b576002811462000526576200055c565b6001915050620005c5565b60ff8411156200053b576200053a62000449565b5b8360020a91508482111562000555576200055462000449565b5b50620005c5565b5060208310610133831016604e8410600b8410161715620005965782820a90508381111562000590576200058f62000449565b5b620005c5565b620005a5848484600162000485565b92509050818404811115620005bf57620005be62000449565b5b81810290505b9392505050565b6000819050919050565b600060ff82169050919050565b6000620005f082620005cc565b9150620005fd83620005d6565b92506200062c7fffffffffffffffffffffffffffffffffffffffffffffffffffffffffffffffff8484620004e0565b905092915050565b60006200064182620005cc565b91506200064e83620005cc565b92508282026200065e81620005cc565b9150828204841483151762000678576200067762000449565b5b5092915050565b61312c806200068f6000396000f3fe608060405234801561001057600080fd5b50600436106101735760003560e01c806347af9957116100de5780638da5cb5b11610097578063be8bb7ba11610071578063be8bb7ba14610400578063dd62ed3e1461041c578063f2fde38b1461044c578063fe575a871461046857610173565b80638da5cb5b1461039457806395d89b41146103b2578063a9059cbb146103d057610173565b806347af99571461030c5780635c975abb1461031657806370a0823114610334578063715018a6146103645780637f51bb1f1461036e5780638936a91f1461038a57610173565b806318160ddd1161013057806318160ddd1461024c57806323b872dd1461026a578063313ce5671461029a57806340c10f19146102b857806342966c68146102d4578063455a4396146102f057610173565b80630121b93f14610178578063013cf08b1461019457806306fdde03146101c6578063095ea7b3146101e4578063096a8ab7146102145780630d61b51914610230575b600080fd5b610192600480360381019061018d919061205c565b610498565b005b6101ae60048036038101906101a9919061205c565b610638565b6040516101bd93929190612143565b60405180910390f35b6101ce610707565b6040516101db9190612181565b60405180910390f35b6101fe60048036038101906101f99190612201565b610744565b60405161020b9190612241565b60405180910390f35b61022e6004803603810190610229919061205c565b610836565b005b61024a6004803603810190610245919061205c565b61088c565b005b610254610b9b565b604051610261919061225c565b60405180910390f35b610284600480360381019061027f9190612277565b610ba5565b6040516102919190612241565b60405180910390f35b6102a2611028565b6040516102af91906122e6565b60405180910390f35b6102d260048036038101906102cd9190612201565b611031565b005b6102ee60048036038101906102e9919061205c565b6111d2565b005b61030a6004803603810190610305919061232d565b61132c565b005b610314611404565b005b61031e611416565b60405161032b9190612241565b60405180910390f35b61034e6004803603810190610349919061236d565b61142c565b60405161035b919061225c565b60405180910390f35b61036c611475565b005b6103886004803603810190610383919061236d565b611489565b005b610392611544565b005b61039c611556565b6040516103a991906123a9565b60405180910390f35b6103ba61157f565b6040516103c79190612181565b60405180910390f35b6103ea60048036038101906103e59190612201565b6115bc565b6040516103f79190612241565b60405180910390f35b61041a600480360381019061041591906125c1565b611a1c565b005b61043660048036038101906104319190612639565b611b20565b604051610443919061225c565b60405180910390f35b6104666004803603810190610461919061236d565b611ba7565b005b610482600480360381019061047d919061236d565b611c2d565b60405161048f9190612241565b60405180910390f35b60068054905081106104df576040517f08c379a00000000000000000000000000000000000000000000000000000000081526004016104d6906126c5565b60405180910390fd5b6000600682815481106104f5576104f46126e5565b5b906000526020600020906004020190508060020160009054906101000a900460ff1615610557576040517f08c379a000000000000000000000000000000000000000000000000000000000815260040161054e90612760565b60405180910390fd5b6000600260003373ffffffffffffffffffffffffffffffffffffffff1673ffffffffffffffffffffffffffffffffffffffff168152602001908152602001600020549050600081116105de576040517f08c379a00000000000000000000000000000000000000000000000000000000081526004016105d5906127cc565b60405180910390fd5b808260010160008282546105f2919061281b565b92505081905550827f12602b81b4b3a6bc77534c571e8af3d316246bc5e5bea24efdf512ff6715da15338360405161062b92919061284f565b60405180910390a2505050565b6006818154811061064857600080fd5b906000526020600020906004020160009150905080600001805461066b906128a7565b80601f0160208091040260200160405190810160405280929190818152602001828054610697906128a7565b80156106e45780601f106106b9576101008083540402835291602001916106e4565b820191906000526020600020905b8154815290600101906020018083116106c757829003601f168201915b5050505050908060010154908060020160009054906101000a900460ff16905083565b60606040518060400160405280600a81526020017f5265776172644369747900000000000000000000000000000000000000000000815250905090565b600081600360003373ffffffffffffffffffffffffffffffffffffffff1673ffffffffffffffffffffffffffffffffffffffff16815260200190815260200160002060008573ffffffffffffffffffffffffffffffffffffffff1673ffffffffffffffffffffffffffffffffffffffff168152602001908152602001600020819055508273ffffffffffffffffffffffffffffffffffffffff163373ffffffffffffffffffffffffffffffffffffffff167f8c5be1e5ebec7d5bd14f71427d1e84f3dd0314c0f7b2291e5b200ac8c7c3b92584604051610824919061225c565b60405180910390a36001905092915050565b61083e611c83565b6032811115610882576040517f08c379a000000000000000000000000000000000000000000000000000000000815260040161087990612924565b60405180910390fd5b8060088190555050565b610894611c83565b61089c611d0a565b60068054905081106108e3576040517f08c379a00000000000000000000000000000000000000000000000000000000081526004016108da906126c5565b60405180910390fd5b6000600682815481106108f9576108f86126e5565b5b906000526020600020906004020190508060020160009054906101000a900460ff161561095b576040517f08c379a000000000000000000000000000000000000000000000000000000000815260040161095290612760565b60405180910390fd5b60008160010154116109a2576040517f08c379a000000000000000000000000000000000000000000000000000000000815260040161099990612990565b60405180910390fd5b60018160020160006101000a81548160ff02191690831515021790555060008160010154905060005b8260030180549050811015610b8d5760008360030182815481106109f2576109f16126e5565b5b9060005260206000200160009054906101000a900473ffffffffffffffffffffffffffffffffffffffff169050600460008273ffffffffffffffffffffffffffffffffffffffff1673ffffffffffffffffffffffffffffffffffffffff16815260200190815260200160002060009054906101000a900460ff1615610aac576040517f08c379a0000000000000000000000000000000000000000000000000000000008152600401610aa3906129fc565b60405180910390fd5b6000846003018054905084610ac19190612a4b565b905080600260008473ffffffffffffffffffffffffffffffffffffffff1673ffffffffffffffffffffffffffffffffffffffff1681526020019081526020016000206000828254610b12919061281b565b925050819055508173ffffffffffffffffffffffffffffffffffffffff163073ffffffffffffffffffffffffffffffffffffffff167fddf252ad1be2c89b69c2b068fc378daa952ba7f163c4a11628f55a4df523b3ef83604051610b76919061225c565b60405180910390a3505080806001019150506109cb565b505050610b98611d50565b50565b6000600554905090565b6000610baf611d59565b81600360008673ffffffffffffffffffffffffffffffffffffffff1673ffffffffffffffffffffffffffffffffffffffff16815260200190815260200160002060003373ffffffffffffffffffffffffffffffffffffffff1673ffffffffffffffffffffffffffffffffffffffff168152602001908152602001600020541015610c6e576040517f08c379a0000000000000000000000000000000000000000000000000000000008152600401610c6590612ac8565b60405180910390fd5b81600260008673ffffffffffffffffffffffffffffffffffffffff1673ffffffffffffffffffffffffffffffffffffffff168152602001908152602001600020541015610cf0576040517f08c379a0000000000000000000000000000000000000000000000000000000008152600401610ce790612b34565b60405180910390fd5b600073ffffffffffffffffffffffffffffffffffffffff168373ffffffffffffffffffffffffffffffffffffffff1603610d5f576040517f08c379a0000000000000000000000000000000000000000000000000000000008152600401610d5690612ba0565b60405180910390fd5b600460008573ffffffffffffffffffffffffffffffffffffffff1673ffffffffffffffffffffffffffffffffffffffff16815260200190815260200160002060009054906101000a900460ff1615610dec576040517f08c379a0000000000000000000000000000000000000000000000000000000008152600401610de390612c0c565b60405180910390fd5b600460008473ffffffffffffffffffffffffffffffffffffffff1673ffffffffffffffffffffffffffffffffffffffff16815260200190815260200160002060009054906101000a900460ff1615610e79576040517f08c379a0000000000000000000000000000000000000000000000000000000008152600401610e70906129fc565b60405180910390fd5b81600260008673ffffffffffffffffffffffffffffffffffffffff1673ffffffffffffffffffffffffffffffffffffffff1681526020019081526020016000206000828254610ec89190612c2c565b9250508190555081600260008573ffffffffffffffffffffffffffffffffffffffff1673ffffffffffffffffffffffffffffffffffffffff1681526020019081526020016000206000828254610f1e919061281b565b9250508190555081600360008673ffffffffffffffffffffffffffffffffffffffff1673ffffffffffffffffffffffffffffffffffffffff16815260200190815260200160002060003373ffffffffffffffffffffffffffffffffffffffff1673ffffffffffffffffffffffffffffffffffffffff1681526020019081526020016000206000828254610fb19190612c2c565b925050819055508273ffffffffffffffffffffffffffffffffffffffff168473ffffffffffffffffffffffffffffffffffffffff167fddf252ad1be2c89b69c2b068fc378daa952ba7f163c4a11628f55a4df523b3ef84604051611015919061225c565b60405180910390a3600190509392505050565b60006012905090565b611039611c83565b600073ffffffffffffffffffffffffffffffffffffffff168273ffffffffffffffffffffffffffffffffffffffff16036110a8576040517f08c379a000000000000000000000000000000000000000000000000000000000815260040161109f90612cac565b60405180910390fd5b600554816005546110b9919061281b565b116110f9576040517f08c379a00000000000000000000000000000000000000000000000000000000081526004016110f090612d18565b60405180910390fd5b806005600082825461110b919061281b565b9250508190555080600260008473ffffffffffffffffffffffffffffffffffffffff1673ffffffffffffffffffffffffffffffffffffffff1681526020019081526020016000206000828254611161919061281b565b925050819055508173ffffffffffffffffffffffffffffffffffffffff16600073ffffffffffffffffffffffffffffffffffffffff167fddf252ad1be2c89b69c2b068fc378daa952ba7f163c4a11628f55a4df523b3ef836040516111c6919061225c565b60405180910390a35050565b80600260003373ffffffffffffffffffffffffffffffffffffffff1673ffffffffffffffffffffffffffffffffffffffff168152602001908152602001600020541015611254576040517f08c379a000000000000000000000000000000000000000000000000000000000815260040161124b90612d84565b60405180910390fd5b80600260003373ffffffffffffffffffffffffffffffffffffffff1673ffffffffffffffffffffffffffffffffffffffff16815260200190815260200160002060008282546112a39190612c2c565b9250508190555080600560008282546112bc9190612c2c565b92505081905550600073ffffffffffffffffffffffffffffffffffffffff163373ffffffffffffffffffffffffffffffffffffffff167fddf252ad1be2c89b69c2b068fc378daa952ba7f163c4a11628f55a4df523b3ef83604051611321919061225c565b60405180910390a350565b611334611c83565b61133c611556565b73ffffffffffffffffffffffffffffffffffffffff168273ffffffffffffffffffffffffffffffffffffffff16036113a9576040517f08c379a00000000000000000000000000000000000000000000000000000000081526004016113a090612e16565b60405180910390fd5b80600460008473ffffffffffffffffffffffffffffffffffffffff1673ffffffffffffffffffffffffffffffffffffffff16815260200190815260200160002060006101000a81548160ff0219169083151502179055505050565b61140c611c83565b611414611d9a565b565b60008060149054906101000a900460ff16905090565b6000600260008373ffffffffffffffffffffffffffffffffffffffff1673ffffffffffffffffffffffffffffffffffffffff168152602001908152602001600020549050919050565b61147d611c83565b6114876000611dfd565b565b611491611c83565b600073ffffffffffffffffffffffffffffffffffffffff168173ffffffffffffffffffffffffffffffffffffffff1603611500576040517f08c379a00000000000000000000000000000000000000000000000000000000081526004016114f790612cac565b60405180910390fd5b80600760006101000a81548173ffffffffffffffffffffffffffffffffffffffff021916908373ffffffffffffffffffffffffffffffffffffffff16021790555050565b61154c611c83565b611554611ec1565b565b60008060009054906101000a900473ffffffffffffffffffffffffffffffffffffffff16905090565b60606040518060400160405280600481526020017f5245574100000000000000000000000000000000000000000000000000000000815250905090565b60006115c6611d59565b60006103e8600854846115d99190612e36565b6115e39190612a4b565b9050600081846115f39190612c2c565b9050600460003373ffffffffffffffffffffffffffffffffffffffff1673ffffffffffffffffffffffffffffffffffffffff16815260200190815260200160002060009054906101000a900460ff1615611682576040517f08c379a000000000000000000000000000000000000000000000000000000000815260040161167990612c0c565b60405180910390fd5b600460008673ffffffffffffffffffffffffffffffffffffffff1673ffffffffffffffffffffffffffffffffffffffff16815260200190815260200160002060009054906101000a900460ff161561170f576040517f08c379a0000000000000000000000000000000000000000000000000000000008152600401611706906129fc565b60405180910390fd5b83600260003373ffffffffffffffffffffffffffffffffffffffff1673ffffffffffffffffffffffffffffffffffffffff168152602001908152602001600020541015611791576040517f08c379a000000000000000000000000000000000000000000000000000000000815260040161178890612b34565b60405180910390fd5b600073ffffffffffffffffffffffffffffffffffffffff168573ffffffffffffffffffffffffffffffffffffffff1603611800576040517f08c379a00000000000000000000000000000000000000000000000000000000081526004016117f790612ba0565b60405180910390fd5b83600260003373ffffffffffffffffffffffffffffffffffffffff1673ffffffffffffffffffffffffffffffffffffffff168152602001908152602001600020600082825461184f9190612c2c565b9250508190555080600260008773ffffffffffffffffffffffffffffffffffffffff1673ffffffffffffffffffffffffffffffffffffffff16815260200190815260200160002060008282546118a5919061281b565b925050819055508160026000600760009054906101000a900473ffffffffffffffffffffffffffffffffffffffff1673ffffffffffffffffffffffffffffffffffffffff1673ffffffffffffffffffffffffffffffffffffffff168152602001908152602001600020600082825461191d919061281b565b925050819055508473ffffffffffffffffffffffffffffffffffffffff163373ffffffffffffffffffffffffffffffffffffffff167fddf252ad1be2c89b69c2b068fc378daa952ba7f163c4a11628f55a4df523b3ef83604051611981919061225c565b60405180910390a3600760009054906101000a900473ffffffffffffffffffffffffffffffffffffffff1673ffffffffffffffffffffffffffffffffffffffff163373ffffffffffffffffffffffffffffffffffffffff167fddf252ad1be2c89b69c2b068fc378daa952ba7f163c4a11628f55a4df523b3ef84604051611a08919061225c565b60405180910390a360019250505092915050565b611a24611c83565b60066040518060800160405280848152602001600081526020016000151581526020018381525090806001815401808255809150506001900390600052602060002090600402016000909190919091506000820151816000019081611a899190613024565b506020820151816001015560408201518160020160006101000a81548160ff0219169083151502179055506060820151816003019080519060200190611ad0929190611f6b565b5050506001600680549050611ae59190612c2c565b7f9c770c289ab5bf7e57cb1d23c8ceae993aea46eb64847072fd3d78ca60d3e43283604051611b149190612181565b60405180910390a25050565b6000600360008473ffffffffffffffffffffffffffffffffffffffff1673ffffffffffffffffffffffffffffffffffffffff16815260200190815260200160002060008373ffffffffffffffffffffffffffffffffffffffff1673ffffffffffffffffffffffffffffffffffffffff16815260200190815260200160002054905092915050565b611baf611c83565b600073ffffffffffffffffffffffffffffffffffffffff168173ffffffffffffffffffffffffffffffffffffffff1603611c215760006040517f1e4fbdf7000000000000000000000000000000000000000000000000000000008152600401611c1891906123a9565b60405180910390fd5b611c2a81611dfd565b50565b6000600460008373ffffffffffffffffffffffffffffffffffffffff1673ffffffffffffffffffffffffffffffffffffffff16815260200190815260200160002060009054906101000a900460ff169050919050565b611c8b611f23565b73ffffffffffffffffffffffffffffffffffffffff16611ca9611556565b73ffffffffffffffffffffffffffffffffffffffff1614611d0857611ccc611f23565b6040517f118cdaa7000000000000000000000000000000000000000000000000000000008152600401611cff91906123a9565b60405180910390fd5b565b600260015403611d46576040517f3ee5aeb500000000000000000000000000000000000000000000000000000000815260040160405180910390fd5b6002600181905550565b60018081905550565b611d61611416565b15611d98576040517fd93c066500000000000000000000000000000000000000000000000000000000815260040160405180910390fd5b565b611da2611d59565b6001600060146101000a81548160ff0219169083151502179055507f62e78cea01bee320cd4e420270b5ea74000d11b0c9f74754ebdbfc544b05a258611de6611f23565b604051611df391906123a9565b60405180910390a1565b60008060009054906101000a900473ffffffffffffffffffffffffffffffffffffffff169050816000806101000a81548173ffffffffffffffffffffffffffffffffffffffff021916908373ffffffffffffffffffffffffffffffffffffffff1602179055508173ffffffffffffffffffffffffffffffffffffffff168173ffffffffffffffffffffffffffffffffffffffff167f8be0079c531659141344cd1fd0a4f28419497f9722a3daafe3b4186f6b6457e060405160405180910390a35050565b611ec9611f2b565b60008060146101000a81548160ff0219169083151502179055507f5db9ee0a495bf2e6ff9c91a7834c1ba4fdd244a5e8aa4e537bd38aeae4b073aa611f0c611f23565b604051611f1991906123a9565b60405180910390a1565b600033905090565b611f33611416565b611f69576040517f8dfc202b00000000000000000000000000000000000000000000000000000000815260040160405180910390fd5b565b828054828255906000526020600020908101928215611fe4579160200282015b82811115611fe35782518260006101000a81548173ffffffffffffffffffffffffffffffffffffffff021916908373ffffffffffffffffffffffffffffffffffffffff16021790555091602001919060010190611f8b565b5b509050611ff19190611ff5565b5090565b5b8082111561200e576000816000905550600101611ff6565b5090565b6000604051905090565b600080fd5b600080fd5b6000819050919050565b61203981612026565b811461204457600080fd5b50565b60008135905061205681612030565b92915050565b6000602082840312156120725761207161201c565b5b600061208084828501612047565b91505092915050565b600081519050919050565b600082825260208201905092915050565b60005b838110156120c35780820151818401526020810190506120a8565b60008484015250505050565b6000601f19601f8301169050919050565b60006120eb82612089565b6120f58185612094565b93506121058185602086016120a5565b61210e816120cf565b840191505092915050565b61212281612026565b82525050565b60008115159050919050565b61213d81612128565b82525050565b6000606082019050818103600083015261215d81866120e0565b905061216c6020830185612119565b6121796040830184612134565b949350505050565b6000602082019050818103600083015261219b81846120e0565b905092915050565b600073ffffffffffffffffffffffffffffffffffffffff82169050919050565b60006121ce826121a3565b9050919050565b6121de816121c3565b81146121e957600080fd5b50565b6000813590506121fb816121d5565b92915050565b600080604083850312156122185761221761201c565b5b6000612226858286016121ec565b925050602061223785828601612047565b9150509250929050565b60006020820190506122566000830184612134565b92915050565b60006020820190506122716000830184612119565b92915050565b6000806000606084860312156122905761228f61201c565b5b600061229e868287016121ec565b93505060206122af868287016121ec565b92505060406122c086828701612047565b9150509250925092565b600060ff82169050919050565b6122e0816122ca565b82525050565b60006020820190506122fb60008301846122d7565b92915050565b61230a81612128565b811461231557600080fd5b50565b60008135905061232781612301565b92915050565b600080604083850312156123445761234361201c565b5b6000612352858286016121ec565b925050602061236385828601612318565b9150509250929050565b6000602082840312156123835761238261201c565b5b6000612391848285016121ec565b91505092915050565b6123a3816121c3565b82525050565b60006020820190506123be600083018461239a565b92915050565b600080fd5b600080fd5b7f4e487b7100000000000000000000000000000000000000000000000000000000600052604160045260246000fd5b612406826120cf565b810181811067ffffffffffffffff82111715612425576124246123ce565b5b80604052505050565b6000612438612012565b905061244482826123fd565b919050565b600067ffffffffffffffff821115612464576124636123ce565b5b61246d826120cf565b9050602081019050919050565b82818337600083830152505050565b600061249c61249784612449565b61242e565b9050828152602081018484840111156124b8576124b76123c9565b5b6124c384828561247a565b509392505050565b600082601f8301126124e0576124df6123c4565b5b81356124f0848260208601612489565b91505092915050565b600067ffffffffffffffff821115612514576125136123ce565b5b602082029050602081019050919050565b600080fd5b600061253d612538846124f9565b61242e565b905080838252602082019050602084028301858111156125605761255f612525565b5b835b81811015612589578061257588826121ec565b845260208401935050602081019050612562565b5050509392505050565b600082601f8301126125a8576125a76123c4565b5b81356125b884826020860161252a565b91505092915050565b600080604083850312156125d8576125d761201c565b5b600083013567ffffffffffffffff8111156125f6576125f5612021565b5b612602858286016124cb565b925050602083013567ffffffffffffffff81111561262357612622612021565b5b61262f85828601612593565b9150509250929050565b600080604083850312156126505761264f61201c565b5b600061265e858286016121ec565b925050602061266f858286016121ec565b9150509250929050565b7f496e76616c69642070726f706f73616c00000000000000000000000000000000600082015250565b60006126af601083612094565b91506126ba82612679565b602082019050919050565b600060208201905081810360008301526126de816126a2565b9050919050565b7f4e487b7100000000000000000000000000000000000000000000000000000000600052603260045260246000fd5b7f50726f706f73616c20616c726561647920657865637574656400000000000000600082015250565b600061274a601983612094565b915061275582612714565b602082019050919050565b600060208201905081810360008301526127798161273d565b9050919050565b7f4e6f20746f6b656e7320746f20766f7465000000000000000000000000000000600082015250565b60006127b6601183612094565b91506127c182612780565b602082019050919050565b600060208201905081810360008301526127e5816127a9565b9050919050565b7f4e487b7100000000000000000000000000000000000000000000000000000000600052601160045260246000fd5b600061282682612026565b915061283183612026565b9250828201905080821115612849576128486127ec565b5b92915050565b6000604082019050612864600083018561239a565b6128716020830184612119565b9392505050565b7f4e487b7100000000000000000000000000000000000000000000000000000000600052602260045260246000fd5b600060028204905060018216806128bf57607f821691505b6020821081036128d2576128d1612878565b5b50919050565b7f46656520746f6f20686967680000000000000000000000000000000000000000600082015250565b600061290e600c83612094565b9150612919826128d8565b602082019050919050565b6000602082019050818103600083015261293d81612901565b9050919050565b7f4e6f20766f74657320666f722070726f706f73616c0000000000000000000000600082015250565b600061297a601583612094565b915061298582612944565b602082019050919050565b600060208201905081810360008301526129a98161296d565b9050919050565b7f526563697069656e7420697320626c61636b6c69737465640000000000000000600082015250565b60006129e6601883612094565b91506129f1826129b0565b602082019050919050565b60006020820190508181036000830152612a15816129d9565b9050919050565b7f4e487b7100000000000000000000000000000000000000000000000000000000600052601260045260246000fd5b6000612a5682612026565b9150612a6183612026565b925082612a7157612a70612a1c565b5b828204905092915050565b7f496e73756666696369656e7420616c6c6f77616e636500000000000000000000600082015250565b6000612ab2601683612094565b9150612abd82612a7c565b602082019050919050565b60006020820190508181036000830152612ae181612aa5565b9050919050565b7f496e73756666696369656e742062616c616e6365000000000000000000000000600082015250565b6000612b1e601483612094565b9150612b2982612ae8565b602082019050919050565b60006020820190508181036000830152612b4d81612b11565b9050919050565b7f496e76616c696420726563697069656e74206164647265737300000000000000600082015250565b6000612b8a601983612094565b9150612b9582612b54565b602082019050919050565b60006020820190508181036000830152612bb981612b7d565b9050919050565b7f53656e64657220697320626c61636b6c69737465640000000000000000000000600082015250565b6000612bf6601583612094565b9150612c0182612bc0565b602082019050919050565b60006020820190508181036000830152612c2581612be9565b9050919050565b6000612c3782612026565b9150612c4283612026565b9250828203905081811115612c5a57612c596127ec565b5b92915050565b7f496e76616c696420616464726573730000000000000000000000000000000000600082015250565b6000612c96600f83612094565b9150612ca182612c60565b602082019050919050565b60006020820190508181036000830152612cc581612c89565b9050919050565b7f4f766572666c6f77206572726f72000000000000000000000000000000000000600082015250565b6000612d02600e83612094565b9150612d0d82612ccc565b602082019050919050565b60006020820190508181036000830152612d3181612cf5565b9050919050565b7f496e73756666696369656e742062616c616e636520746f206275726e00000000600082015250565b6000612d6e601c83612094565b9150612d7982612d38565b602082019050919050565b60006020820190508181036000830152612d9d81612d61565b9050919050565b7f43616e6e6f74206d6f64696679206f776e657220626c61636b6c69737420737460008201527f6174757300000000000000000000000000000000000000000000000000000000602082015250565b6000612e00602483612094565b9150612e0b82612da4565b604082019050919050565b60006020820190508181036000830152612e2f81612df3565b9050919050565b6000612e4182612026565b9150612e4c83612026565b9250828202612e5a81612026565b91508282048414831517612e7157612e706127ec565b5b5092915050565b60008190508160005260206000209050919050565b60006020601f8301049050919050565b600082821b905092915050565b600060088302612eda7fffffffffffffffffffffffffffffffffffffffffffffffffffffffffffffffff82612e9d565b612ee48683612e9d565b95508019841693508086168417925050509392505050565b6000819050919050565b6000612f21612f1c612f1784612026565b612efc565b612026565b9050919050565b6000819050919050565b612f3b83612f06565b612f4f612f4782612f28565b848454612eaa565b825550505050565b600090565b612f64612f57565b612f6f818484612f32565b505050565b5b81811015612f9357612f88600082612f5c565b600181019050612f75565b5050565b601f821115612fd857612fa981612e78565b612fb284612e8d565b81016020851015612fc1578190505b612fd5612fcd85612e8d565b830182612f74565b50505b505050565b600082821c905092915050565b6000612ffb60001984600802612fdd565b1980831691505092915050565b60006130148383612fea565b9150826002028217905092915050565b61302d82612089565b67ffffffffffffffff811115613046576130456123ce565b5b61305082546128a7565b61305b828285612f97565b600060209050601f83116001811461308e576000841561307c578287015190505b6130868582613008565b8655506130ee565b601f19841661309c86612e78565b60005b828110156130c45784890151825560018201915060208501945060208101905061309f565b868310156130e157848901516130dd601f891682612fea565b8355505b6001600288020188555050505b50505050505056fea264697066735822122084b2a1a499c948a3f46039b83f065fb6a210cb3eb17b94ac64de6d62bbc0522c64736f6c63430008180033",
  "linkReferences": {},
  "deployedLinkReferences": {}
}